{
  "address": "0xEE323ACB1958DD58b896822170d26Df8468Ff911",
  "abi": [
    {
      "inputs": [
        {
          "internalType": "address",
          "name": "vrfCoordinatorV2",
          "type": "address"
        },
        {
          "internalType": "uint64",
          "name": "subscriptionId",
          "type": "uint64"
        },
        {
          "internalType": "bytes32",
          "name": "gasLane",
          "type": "bytes32"
        },
        {
          "internalType": "uint32",
          "name": "callbackGasLimit",
          "type": "uint32"
        },
        {
          "internalType": "string[3]",
          "name": "tokenUris",
          "type": "string[3]"
        },
        {
          "internalType": "uint256",
          "name": "mintFee",
          "type": "uint256"
        }
      ],
      "stateMutability": "nonpayable",
      "type": "constructor"
    },
    {
      "inputs": [
        {
          "internalType": "address",
          "name": "have",
          "type": "address"
        },
        {
          "internalType": "address",
          "name": "want",
          "type": "address"
        }
      ],
      "name": "OnlyCoordinatorCanFulfill",
      "type": "error"
    },
    {
      "inputs": [],
      "name": "RandomIpfsNft_NeedMoreETHSent",
      "type": "error"
    },
    {
      "inputs": [],
      "name": "RandomIpfsNft_RangeOutOfBounds",
      "type": "error"
    },
    {
      "inputs": [],
      "name": "RandomIpfsNft_TransferFailed",
      "type": "error"
    },
    {
      "anonymous": false,
      "inputs": [
        {
          "indexed": true,
          "internalType": "address",
          "name": "owner",
          "type": "address"
        },
        {
          "indexed": true,
          "internalType": "address",
          "name": "approved",
          "type": "address"
        },
        {
          "indexed": true,
          "internalType": "uint256",
          "name": "tokenId",
          "type": "uint256"
        }
      ],
      "name": "Approval",
      "type": "event"
    },
    {
      "anonymous": false,
      "inputs": [
        {
          "indexed": true,
          "internalType": "address",
          "name": "owner",
          "type": "address"
        },
        {
          "indexed": true,
          "internalType": "address",
          "name": "operator",
          "type": "address"
        },
        {
          "indexed": false,
          "internalType": "bool",
          "name": "approved",
          "type": "bool"
        }
      ],
      "name": "ApprovalForAll",
      "type": "event"
    },
    {
      "anonymous": false,
      "inputs": [
        {
          "indexed": false,
          "internalType": "enum RandomIpfsNft.Art",
          "name": "art",
          "type": "uint8"
        },
        {
          "indexed": false,
          "internalType": "address",
          "name": "minter",
          "type": "address"
        }
      ],
      "name": "NftMinted",
      "type": "event"
    },
    {
      "anonymous": false,
      "inputs": [
        {
          "indexed": true,
          "internalType": "uint256",
          "name": "requestId",
          "type": "uint256"
        },
        {
          "indexed": false,
          "internalType": "address",
          "name": "requester",
          "type": "address"
        }
      ],
      "name": "NftRequested",
      "type": "event"
    },
    {
      "anonymous": false,
      "inputs": [
        {
          "indexed": true,
          "internalType": "address",
          "name": "previousOwner",
          "type": "address"
        },
        {
          "indexed": true,
          "internalType": "address",
          "name": "newOwner",
          "type": "address"
        }
      ],
      "name": "OwnershipTransferred",
      "type": "event"
    },
    {
      "anonymous": false,
      "inputs": [
        {
          "indexed": true,
          "internalType": "address",
          "name": "from",
          "type": "address"
        },
        {
          "indexed": true,
          "internalType": "address",
          "name": "to",
          "type": "address"
        },
        {
          "indexed": true,
          "internalType": "uint256",
          "name": "tokenId",
          "type": "uint256"
        }
      ],
      "name": "Transfer",
      "type": "event"
    },
    {
      "inputs": [
        {
          "internalType": "address",
          "name": "to",
          "type": "address"
        },
        {
          "internalType": "uint256",
          "name": "tokenId",
          "type": "uint256"
        }
      ],
      "name": "approve",
      "outputs": [],
      "stateMutability": "nonpayable",
      "type": "function"
    },
    {
      "inputs": [
        {
          "internalType": "address",
          "name": "owner",
          "type": "address"
        }
      ],
      "name": "balanceOf",
      "outputs": [
        {
          "internalType": "uint256",
          "name": "",
          "type": "uint256"
        }
      ],
      "stateMutability": "view",
      "type": "function"
    },
    {
      "inputs": [
        {
          "internalType": "uint256",
          "name": "tokenId",
          "type": "uint256"
        }
      ],
      "name": "getApproved",
      "outputs": [
        {
          "internalType": "address",
          "name": "",
          "type": "address"
        }
      ],
      "stateMutability": "view",
      "type": "function"
    },
    {
      "inputs": [
        {
          "internalType": "uint256",
          "name": "moddedRng",
          "type": "uint256"
        }
      ],
      "name": "getArtFromModdedRng",
      "outputs": [
        {
          "internalType": "enum RandomIpfsNft.Art",
          "name": "",
          "type": "uint8"
        }
      ],
      "stateMutability": "pure",
      "type": "function"
    },
    {
      "inputs": [
        {
          "internalType": "uint256",
          "name": "index",
          "type": "uint256"
        }
      ],
      "name": "getArtTokenUris",
      "outputs": [
        {
          "internalType": "string",
          "name": "",
          "type": "string"
        }
      ],
      "stateMutability": "view",
      "type": "function"
    },
    {
      "inputs": [],
      "name": "getArtTokenUrisCount",
      "outputs": [
        {
          "internalType": "uint256",
          "name": "",
          "type": "uint256"
        }
      ],
      "stateMutability": "view",
      "type": "function"
    },
    {
      "inputs": [],
      "name": "getChanceArray",
      "outputs": [
        {
          "internalType": "uint256[3]",
          "name": "",
          "type": "uint256[3]"
        }
      ],
      "stateMutability": "pure",
      "type": "function"
    },
    {
      "inputs": [],
      "name": "getMintFee",
      "outputs": [
        {
          "internalType": "uint256",
          "name": "",
          "type": "uint256"
        }
      ],
      "stateMutability": "view",
      "type": "function"
    },
    {
      "inputs": [],
      "name": "getTokenCounter",
      "outputs": [
        {
          "internalType": "uint256",
          "name": "",
          "type": "uint256"
        }
      ],
      "stateMutability": "view",
      "type": "function"
    },
    {
      "inputs": [
        {
          "internalType": "address",
          "name": "owner",
          "type": "address"
        },
        {
          "internalType": "address",
          "name": "operator",
          "type": "address"
        }
      ],
      "name": "isApprovedForAll",
      "outputs": [
        {
          "internalType": "bool",
          "name": "",
          "type": "bool"
        }
      ],
      "stateMutability": "view",
      "type": "function"
    },
    {
      "inputs": [],
      "name": "name",
      "outputs": [
        {
          "internalType": "string",
          "name": "",
          "type": "string"
        }
      ],
      "stateMutability": "view",
      "type": "function"
    },
    {
      "inputs": [],
      "name": "owner",
      "outputs": [
        {
          "internalType": "address",
          "name": "",
          "type": "address"
        }
      ],
      "stateMutability": "view",
      "type": "function"
    },
    {
      "inputs": [
        {
          "internalType": "uint256",
          "name": "tokenId",
          "type": "uint256"
        }
      ],
      "name": "ownerOf",
      "outputs": [
        {
          "internalType": "address",
          "name": "",
          "type": "address"
        }
      ],
      "stateMutability": "view",
      "type": "function"
    },
    {
      "inputs": [
        {
          "internalType": "uint256",
          "name": "requestId",
          "type": "uint256"
        },
        {
          "internalType": "uint256[]",
          "name": "randomWords",
          "type": "uint256[]"
        }
      ],
      "name": "rawFulfillRandomWords",
      "outputs": [],
      "stateMutability": "nonpayable",
      "type": "function"
    },
    {
      "inputs": [],
      "name": "renounceOwnership",
      "outputs": [],
      "stateMutability": "nonpayable",
      "type": "function"
    },
    {
      "inputs": [],
      "name": "requestNft",
      "outputs": [
        {
          "internalType": "uint256",
          "name": "requestId",
          "type": "uint256"
        }
      ],
      "stateMutability": "payable",
      "type": "function"
    },
    {
      "inputs": [
        {
          "internalType": "uint256",
          "name": "",
          "type": "uint256"
        }
      ],
      "name": "s_requestIdToSender",
      "outputs": [
        {
          "internalType": "address",
          "name": "",
          "type": "address"
        }
      ],
      "stateMutability": "view",
      "type": "function"
    },
    {
      "inputs": [],
      "name": "s_tokenCounter",
      "outputs": [
        {
          "internalType": "uint256",
          "name": "",
          "type": "uint256"
        }
      ],
      "stateMutability": "view",
      "type": "function"
    },
    {
      "inputs": [
        {
          "internalType": "address",
          "name": "from",
          "type": "address"
        },
        {
          "internalType": "address",
          "name": "to",
          "type": "address"
        },
        {
          "internalType": "uint256",
          "name": "tokenId",
          "type": "uint256"
        }
      ],
      "name": "safeTransferFrom",
      "outputs": [],
      "stateMutability": "nonpayable",
      "type": "function"
    },
    {
      "inputs": [
        {
          "internalType": "address",
          "name": "from",
          "type": "address"
        },
        {
          "internalType": "address",
          "name": "to",
          "type": "address"
        },
        {
          "internalType": "uint256",
          "name": "tokenId",
          "type": "uint256"
        },
        {
          "internalType": "bytes",
          "name": "data",
          "type": "bytes"
        }
      ],
      "name": "safeTransferFrom",
      "outputs": [],
      "stateMutability": "nonpayable",
      "type": "function"
    },
    {
      "inputs": [
        {
          "internalType": "address",
          "name": "operator",
          "type": "address"
        },
        {
          "internalType": "bool",
          "name": "approved",
          "type": "bool"
        }
      ],
      "name": "setApprovalForAll",
      "outputs": [],
      "stateMutability": "nonpayable",
      "type": "function"
    },
    {
      "inputs": [
        {
          "internalType": "bytes4",
          "name": "interfaceId",
          "type": "bytes4"
        }
      ],
      "name": "supportsInterface",
      "outputs": [
        {
          "internalType": "bool",
          "name": "",
          "type": "bool"
        }
      ],
      "stateMutability": "view",
      "type": "function"
    },
    {
      "inputs": [],
      "name": "symbol",
      "outputs": [
        {
          "internalType": "string",
          "name": "",
          "type": "string"
        }
      ],
      "stateMutability": "view",
      "type": "function"
    },
    {
      "inputs": [
        {
          "internalType": "uint256",
          "name": "tokenId",
          "type": "uint256"
        }
      ],
      "name": "tokenURI",
      "outputs": [
        {
          "internalType": "string",
          "name": "",
          "type": "string"
        }
      ],
      "stateMutability": "view",
      "type": "function"
    },
    {
      "inputs": [
        {
          "internalType": "address",
          "name": "from",
          "type": "address"
        },
        {
          "internalType": "address",
          "name": "to",
          "type": "address"
        },
        {
          "internalType": "uint256",
          "name": "tokenId",
          "type": "uint256"
        }
      ],
      "name": "transferFrom",
      "outputs": [],
      "stateMutability": "nonpayable",
      "type": "function"
    },
    {
      "inputs": [
        {
          "internalType": "address",
          "name": "newOwner",
          "type": "address"
        }
      ],
      "name": "transferOwnership",
      "outputs": [],
      "stateMutability": "nonpayable",
      "type": "function"
    },
    {
      "inputs": [],
      "name": "withdraw",
      "outputs": [],
      "stateMutability": "nonpayable",
      "type": "function"
    }
  ],
  "transactionHash": "0xf0c52f04c7d6f294c80c65d3ee1584bf0253c91ca02900e105bba8125bccd267",
  "args": [
    "0x2Ca8E0C643bDe4C2E08ab1fA0da3401AdAD7734D",
    "2311",
    "0x79d3d8832d904592c0bf9818b621522c988bb8b0c05cdc3b15aea1b6e8db0c15",
    "500000",
    [
      "ipfs://QmWXvFN6nuc4Sp1kQUJfS4iJZ1L7fgm8RZS8VYc9wzDXrS",
      "ipfs://QmSvwhkZEsx7nemkMRkDxFnjFBhezkpev4gx9jJSKfoZLE",
      "ipfs://QmQwDisywUH8V2hoedU1An9Famg9R1jb9hMurEN4yV58R6"
    ],
    "10000000000000000"
  ],
  "numDeployments": 1,
  "solcInputHash": "415797cc41038e9031ec31a02a2ea863",
  "bytecode": "0x6101206040523480156200001257600080fd5b50604051620042f6380380620042f68339818101604052810190620000389190620007fd565b6040518060400160405280600f81526020017f52616e646f6d2049504653204e465400000000000000000000000000000000008152506040518060400160405280600381526020017f52494e0000000000000000000000000000000000000000000000000000000000815250878073ffffffffffffffffffffffffffffffffffffffff1660808173ffffffffffffffffffffffffffffffffffffffff1681525050508160009080519060200190620000f292919062000290565b5080600190805190602001906200010b92919062000290565b5050506200012e62000122620001c260201b60201c565b620001ca60201b60201c565b8573ffffffffffffffffffffffffffffffffffffffff1660a08173ffffffffffffffffffffffffffffffffffffffff16815250508467ffffffffffffffff1660c08167ffffffffffffffff16815250508360e081815250508263ffffffff166101008163ffffffff168152505081600a906003620001ae92919062000321565b5080600b819055505050505050506200091d565b600033905090565b6000600760009054906101000a900473ffffffffffffffffffffffffffffffffffffffff16905081600760006101000a81548173ffffffffffffffffffffffffffffffffffffffff021916908373ffffffffffffffffffffffffffffffffffffffff1602179055508173ffffffffffffffffffffffffffffffffffffffff168173ffffffffffffffffffffffffffffffffffffffff167f8be0079c531659141344cd1fd0a4f28419497f9722a3daafe3b4186f6b6457e060405160405180910390a35050565b8280546200029e90620008e7565b90600052602060002090601f016020900481019282620002c257600085556200030e565b82601f10620002dd57805160ff19168380011785556200030e565b828001600101855582156200030e579182015b828111156200030d578251825591602001919060010190620002f0565b5b5090506200031d919062000388565b5090565b82805482825590600052602060002090810192821562000375579160200282015b82811115620003745782518290805190602001906200036392919062000290565b509160200191906001019062000342565b5b509050620003849190620003a7565b5090565b5b80821115620003a357600081600090555060010162000389565b5090565b5b80821115620003cb5760008181620003c19190620003cf565b50600101620003a8565b5090565b508054620003dd90620008e7565b6000825580601f10620003f1575062000412565b601f01602090049060005260206000209081019062000411919062000388565b5b50565b6000604051905090565b600080fd5b600080fd5b600073ffffffffffffffffffffffffffffffffffffffff82169050919050565b6000620004568262000429565b9050919050565b620004688162000449565b81146200047457600080fd5b50565b60008151905062000488816200045d565b92915050565b600067ffffffffffffffff82169050919050565b620004ad816200048e565b8114620004b957600080fd5b50565b600081519050620004cd81620004a2565b92915050565b6000819050919050565b620004e881620004d3565b8114620004f457600080fd5b50565b6000815190506200050881620004dd565b92915050565b600063ffffffff82169050919050565b62000529816200050e565b81146200053557600080fd5b50565b60008151905062000549816200051e565b92915050565b600080fd5b6000601f19601f8301169050919050565b7f4e487b7100000000000000000000000000000000000000000000000000000000600052604160045260246000fd5b6200059f8262000554565b810181811067ffffffffffffffff82111715620005c157620005c062000565565b5b80604052505050565b6000620005d662000415565b9050620005e4828262000594565b919050565b600067ffffffffffffffff82111562000607576200060662000565565b5b602082029050919050565b600080fd5b600080fd5b600067ffffffffffffffff8211156200063a576200063962000565565b5b620006458262000554565b9050602081019050919050565b60005b838110156200067257808201518184015260208101905062000655565b8381111562000682576000848401525b50505050565b60006200069f62000699846200061c565b620005ca565b905082815260208101848484011115620006be57620006bd62000617565b5b620006cb84828562000652565b509392505050565b600082601f830112620006eb57620006ea6200054f565b5b8151620006fd84826020860162000688565b91505092915050565b60006200071d6200071784620005e9565b620005ca565b905080602084028301858111156200073a576200073962000612565b5b835b818110156200078857805167ffffffffffffffff8111156200076357620007626200054f565b5b808601620007728982620006d3565b855260208501945050506020810190506200073c565b5050509392505050565b600082601f830112620007aa57620007a96200054f565b5b6003620007b984828562000706565b91505092915050565b6000819050919050565b620007d781620007c2565b8114620007e357600080fd5b50565b600081519050620007f781620007cc565b92915050565b60008060008060008060c087890312156200081d576200081c6200041f565b5b60006200082d89828a0162000477565b96505060206200084089828a01620004bc565b95505060406200085389828a01620004f7565b94505060606200086689828a0162000538565b935050608087015167ffffffffffffffff8111156200088a576200088962000424565b5b6200089889828a0162000792565b92505060a0620008ab89828a01620007e6565b9150509295509295509295565b7f4e487b7100000000000000000000000000000000000000000000000000000000600052602260045260246000fd5b600060028204905060018216806200090057607f821691505b60208210811415620009175762000916620008b8565b5b50919050565b60805160a05160c05160e0516101005161398d62000969600039600061106b015260006110270152600061104801526000610feb01526000818161096301526109b7015261398d6000f3fe60806040526004361061019c5760003560e01c806370a08231116100ec578063a36f573b1161008a578063b88d4fde11610064578063b88d4fde146105bd578063c87b56dd146105e6578063e985e9c514610623578063f2fde38b146106605761019c565b8063a36f573b14610525578063a457030914610562578063aa1524911461059f5761019c565b80638da5cb5b116100c65780638da5cb5b1461046957806393ed3c731461049457806395d89b41146104d1578063a22cb465146104fc5761019c565b806370a08231146103ea578063715018a6146104275780637a5caab31461043e5761019c565b806323b872dd1161015957806342842e0e1161013357806342842e0e1461032e5780635dacf5f4146103575780636352211e146103825780636e02007d146103bf5761019c565b806323b872dd146102c35780633ccfd60b146102ec5780634228de3f146103035761019c565b806301ffc9a7146101a157806306fdde03146101de578063081812fc14610209578063095ea7b3146102465780630b21a83b1461026f5780631fe543e31461029a575b600080fd5b3480156101ad57600080fd5b506101c860048036038101906101c3919061253b565b610689565b6040516101d59190612583565b60405180910390f35b3480156101ea57600080fd5b506101f361076b565b6040516102009190612637565b60405180910390f35b34801561021557600080fd5b50610230600480360381019061022b919061268f565b6107fd565b60405161023d91906126fd565b60405180910390f35b34801561025257600080fd5b5061026d60048036038101906102689190612744565b610843565b005b34801561027b57600080fd5b5061028461095b565b6040516102919190612793565b60405180910390f35b3480156102a657600080fd5b506102c160048036038101906102bc91906128f6565b610961565b005b3480156102cf57600080fd5b506102ea60048036038101906102e59190612952565b610a21565b005b3480156102f857600080fd5b50610301610a81565b005b34801561030f57600080fd5b50610318610b35565b6040516103259190612793565b60405180910390f35b34801561033a57600080fd5b5061035560048036038101906103509190612952565b610b42565b005b34801561036357600080fd5b5061036c610b62565b6040516103799190612a50565b60405180910390f35b34801561038e57600080fd5b506103a960048036038101906103a4919061268f565b610b8d565b6040516103b691906126fd565b60405180910390f35b3480156103cb57600080fd5b506103d4610c3f565b6040516103e19190612793565b60405180910390f35b3480156103f657600080fd5b50610411600480360381019061040c9190612a6b565b610c49565b60405161041e9190612793565b60405180910390f35b34801561043357600080fd5b5061043c610d01565b005b34801561044a57600080fd5b50610453610d15565b6040516104609190612793565b60405180910390f35b34801561047557600080fd5b5061047e610d1f565b60405161048b91906126fd565b60405180910390f35b3480156104a057600080fd5b506104bb60048036038101906104b6919061268f565b610d49565b6040516104c89190612b0f565b60405180910390f35b3480156104dd57600080fd5b506104e6610e20565b6040516104f39190612637565b60405180910390f35b34801561050857600080fd5b50610523600480360381019061051e9190612b56565b610eb2565b005b34801561053157600080fd5b5061054c6004803603810190610547919061268f565b610ec8565b60405161055991906126fd565b60405180910390f35b34801561056e57600080fd5b506105896004803603810190610584919061268f565b610efb565b6040516105969190612637565b60405180910390f35b6105a7610fab565b6040516105b49190612793565b60405180910390f35b3480156105c957600080fd5b506105e460048036038101906105df9190612c4b565b61118d565b005b3480156105f257600080fd5b5061060d6004803603810190610608919061268f565b6111ef565b60405161061a9190612637565b60405180910390f35b34801561062f57600080fd5b5061064a60048036038101906106459190612cce565b611302565b6040516106579190612583565b60405180910390f35b34801561066c57600080fd5b5061068760048036038101906106829190612a6b565b611396565b005b60007f80ac58cd000000000000000000000000000000000000000000000000000000007bffffffffffffffffffffffffffffffffffffffffffffffffffffffff1916827bffffffffffffffffffffffffffffffffffffffffffffffffffffffff1916148061075457507f5b5e139f000000000000000000000000000000000000000000000000000000007bffffffffffffffffffffffffffffffffffffffffffffffffffffffff1916827bffffffffffffffffffffffffffffffffffffffffffffffffffffffff1916145b8061076457506107638261141a565b5b9050919050565b60606000805461077a90612d3d565b80601f01602080910402602001604051908101604052809291908181526020018280546107a690612d3d565b80156107f35780601f106107c8576101008083540402835291602001916107f3565b820191906000526020600020905b8154815290600101906020018083116107d657829003601f168201915b5050505050905090565b600061080882611484565b6004600083815260200190815260200160002060009054906101000a900473ffffffffffffffffffffffffffffffffffffffff169050919050565b600061084e82610b8d565b90508073ffffffffffffffffffffffffffffffffffffffff168373ffffffffffffffffffffffffffffffffffffffff1614156108bf576040517f08c379a00000000000000000000000000000000000000000000000000000000081526004016108b690612de1565b60405180910390fd5b8073ffffffffffffffffffffffffffffffffffffffff166108de6114cf565b73ffffffffffffffffffffffffffffffffffffffff16148061090d575061090c816109076114cf565b611302565b5b61094c576040517f08c379a000000000000000000000000000000000000000000000000000000000815260040161094390612e73565b60405180910390fd5b61095683836114d7565b505050565b60095481565b7f000000000000000000000000000000000000000000000000000000000000000073ffffffffffffffffffffffffffffffffffffffff163373ffffffffffffffffffffffffffffffffffffffff1614610a1357337f00000000000000000000000000000000000000000000000000000000000000006040517f1cf993f4000000000000000000000000000000000000000000000000000000008152600401610a0a929190612e93565b60405180910390fd5b610a1d8282611590565b5050565b610a32610a2c6114cf565b8261172a565b610a71576040517f08c379a0000000000000000000000000000000000000000000000000000000008152600401610a6890612f2e565b60405180910390fd5b610a7c8383836117bf565b505050565b610a89611a26565b600047905060003373ffffffffffffffffffffffffffffffffffffffff1682604051610ab490612f7f565b60006040518083038185875af1925050503d8060008114610af1576040519150601f19603f3d011682016040523d82523d6000602084013e610af6565b606091505b5050905080610b31576040517f5586f5d000000000000000000000000000000000000000000000000000000000815260040160405180910390fd5b5050565b6000600a80549050905090565b610b5d8383836040518060200160405280600081525061118d565b505050565b610b6a61240a565b6040518060600160405280600a8152602001601e81526020016064815250905090565b6000806002600084815260200190815260200160002060009054906101000a900473ffffffffffffffffffffffffffffffffffffffff169050600073ffffffffffffffffffffffffffffffffffffffff168173ffffffffffffffffffffffffffffffffffffffff161415610c36576040517f08c379a0000000000000000000000000000000000000000000000000000000008152600401610c2d90612fe0565b60405180910390fd5b80915050919050565b6000600954905090565b60008073ffffffffffffffffffffffffffffffffffffffff168273ffffffffffffffffffffffffffffffffffffffff161415610cba576040517f08c379a0000000000000000000000000000000000000000000000000000000008152600401610cb190613072565b60405180910390fd5b600360008373ffffffffffffffffffffffffffffffffffffffff1673ffffffffffffffffffffffffffffffffffffffff168152602001908152602001600020549050919050565b610d09611a26565b610d136000611aa4565b565b6000600b54905090565b6000600760009054906101000a900473ffffffffffffffffffffffffffffffffffffffff16905090565b600080600090506000610d5a610b62565b905060005b6003811015610de857828510158015610d8e5750818160038110610d8657610d85613092565b5b602002015185105b15610db057806002811115610da657610da5612a98565b5b9350505050610e1b565b818160038110610dc357610dc2613092565b5b602002015183610dd391906130f0565b92508080610de090613146565b915050610d5f565b506040517f2b8299b500000000000000000000000000000000000000000000000000000000815260040160405180910390fd5b919050565b606060018054610e2f90612d3d565b80601f0160208091040260200160405190810160405280929190818152602001828054610e5b90612d3d565b8015610ea85780601f10610e7d57610100808354040283529160200191610ea8565b820191906000526020600020905b815481529060010190602001808311610e8b57829003601f168201915b5050505050905090565b610ec4610ebd6114cf565b8383611b6a565b5050565b60086020528060005260406000206000915054906101000a900473ffffffffffffffffffffffffffffffffffffffff1681565b6060600a8281548110610f1157610f10613092565b5b906000526020600020018054610f2690612d3d565b80601f0160208091040260200160405190810160405280929190818152602001828054610f5290612d3d565b8015610f9f5780601f10610f7457610100808354040283529160200191610f9f565b820191906000526020600020905b815481529060010190602001808311610f8257829003601f168201915b50505050509050919050565b6000600b54341015610fe9576040517feb7246a800000000000000000000000000000000000000000000000000000000815260040160405180910390fd5b7f000000000000000000000000000000000000000000000000000000000000000073ffffffffffffffffffffffffffffffffffffffff16635d3b1d307f00000000000000000000000000000000000000000000000000000000000000007f000000000000000000000000000000000000000000000000000000000000000060037f000000000000000000000000000000000000000000000000000000000000000060016040518663ffffffff1660e01b81526004016110ac959493929190613207565b602060405180830381600087803b1580156110c657600080fd5b505af11580156110da573d6000803e3d6000fd5b505050506040513d601f19601f820116820180604052508101906110fe919061326f565b9050336008600083815260200190815260200160002060006101000a81548173ffffffffffffffffffffffffffffffffffffffff021916908373ffffffffffffffffffffffffffffffffffffffff160217905550807ff873236e6cc0ecc5be1a9a35c95ee5b8d1ac4cc7bfef0cc5060391d6cc98e26b3360405161118291906126fd565b60405180910390a290565b61119e6111986114cf565b8361172a565b6111dd576040517f08c379a00000000000000000000000000000000000000000000000000000000081526004016111d490612f2e565b60405180910390fd5b6111e984848484611cd7565b50505050565b60606111fa82611484565b600060066000848152602001908152602001600020805461121a90612d3d565b80601f016020809104026020016040519081016040528092919081815260200182805461124690612d3d565b80156112935780601f1061126857610100808354040283529160200191611293565b820191906000526020600020905b81548152906001019060200180831161127657829003601f168201915b5050505050905060006112a4611d33565b90506000815114156112ba5781925050506112fd565b6000825111156112ef5780826040516020016112d79291906132d8565b604051602081830303815290604052925050506112fd565b6112f884611d4a565b925050505b919050565b6000600560008473ffffffffffffffffffffffffffffffffffffffff1673ffffffffffffffffffffffffffffffffffffffff16815260200190815260200160002060008373ffffffffffffffffffffffffffffffffffffffff1673ffffffffffffffffffffffffffffffffffffffff16815260200190815260200160002060009054906101000a900460ff16905092915050565b61139e611a26565b600073ffffffffffffffffffffffffffffffffffffffff168173ffffffffffffffffffffffffffffffffffffffff16141561140e576040517f08c379a00000000000000000000000000000000000000000000000000000000081526004016114059061336e565b60405180910390fd5b61141781611aa4565b50565b60007f01ffc9a7000000000000000000000000000000000000000000000000000000007bffffffffffffffffffffffffffffffffffffffffffffffffffffffff1916827bffffffffffffffffffffffffffffffffffffffffffffffffffffffff1916149050919050565b61148d81611db2565b6114cc576040517f08c379a00000000000000000000000000000000000000000000000000000000081526004016114c390612fe0565b60405180910390fd5b50565b600033905090565b816004600083815260200190815260200160002060006101000a81548173ffffffffffffffffffffffffffffffffffffffff021916908373ffffffffffffffffffffffffffffffffffffffff160217905550808273ffffffffffffffffffffffffffffffffffffffff1661154a83610b8d565b73ffffffffffffffffffffffffffffffffffffffff167f8c5be1e5ebec7d5bd14f71427d1e84f3dd0314c0f7b2291e5b200ac8c7c3b92560405160405180910390a45050565b60006008600084815260200190815260200160002060009054906101000a900473ffffffffffffffffffffffffffffffffffffffff1690506000600954905060006064846000815181106115e7576115e6613092565b5b60200260200101516115f991906133bd565b9050600160095461160a91906130f0565b600981905550600061161b82610d49565b90506116278484611e1e565b6116e983600a8360028111156116405761163f612a98565b5b8154811061165157611650613092565b5b90600052602060002001805461166690612d3d565b80601f016020809104026020016040519081016040528092919081815260200182805461169290612d3d565b80156116df5780601f106116b4576101008083540402835291602001916116df565b820191906000526020600020905b8154815290600101906020018083116116c257829003601f168201915b5050505050611e3c565b7f8a269f26b688e110e9cbd887d163dab35cae678fa353a0292de532c0cac1ecdc818560405161171a9291906133ee565b60405180910390a1505050505050565b60008061173683610b8d565b90508073ffffffffffffffffffffffffffffffffffffffff168473ffffffffffffffffffffffffffffffffffffffff16148061177857506117778185611302565b5b806117b657508373ffffffffffffffffffffffffffffffffffffffff1661179e846107fd565b73ffffffffffffffffffffffffffffffffffffffff16145b91505092915050565b8273ffffffffffffffffffffffffffffffffffffffff166117df82610b8d565b73ffffffffffffffffffffffffffffffffffffffff1614611835576040517f08c379a000000000000000000000000000000000000000000000000000000000815260040161182c90613489565b60405180910390fd5b600073ffffffffffffffffffffffffffffffffffffffff168273ffffffffffffffffffffffffffffffffffffffff1614156118a5576040517f08c379a000000000000000000000000000000000000000000000000000000000815260040161189c9061351b565b60405180910390fd5b6118b0838383611eb0565b6118bb6000826114d7565b6001600360008573ffffffffffffffffffffffffffffffffffffffff1673ffffffffffffffffffffffffffffffffffffffff168152602001908152602001600020600082825461190b919061353b565b925050819055506001600360008473ffffffffffffffffffffffffffffffffffffffff1673ffffffffffffffffffffffffffffffffffffffff168152602001908152602001600020600082825461196291906130f0565b92505081905550816002600083815260200190815260200160002060006101000a81548173ffffffffffffffffffffffffffffffffffffffff021916908373ffffffffffffffffffffffffffffffffffffffff160217905550808273ffffffffffffffffffffffffffffffffffffffff168473ffffffffffffffffffffffffffffffffffffffff167fddf252ad1be2c89b69c2b068fc378daa952ba7f163c4a11628f55a4df523b3ef60405160405180910390a4611a21838383611eb5565b505050565b611a2e6114cf565b73ffffffffffffffffffffffffffffffffffffffff16611a4c610d1f565b73ffffffffffffffffffffffffffffffffffffffff1614611aa2576040517f08c379a0000000000000000000000000000000000000000000000000000000008152600401611a99906135bb565b60405180910390fd5b565b6000600760009054906101000a900473ffffffffffffffffffffffffffffffffffffffff16905081600760006101000a81548173ffffffffffffffffffffffffffffffffffffffff021916908373ffffffffffffffffffffffffffffffffffffffff1602179055508173ffffffffffffffffffffffffffffffffffffffff168173ffffffffffffffffffffffffffffffffffffffff167f8be0079c531659141344cd1fd0a4f28419497f9722a3daafe3b4186f6b6457e060405160405180910390a35050565b8173ffffffffffffffffffffffffffffffffffffffff168373ffffffffffffffffffffffffffffffffffffffff161415611bd9576040517f08c379a0000000000000000000000000000000000000000000000000000000008152600401611bd090613627565b60405180910390fd5b80600560008573ffffffffffffffffffffffffffffffffffffffff1673ffffffffffffffffffffffffffffffffffffffff16815260200190815260200160002060008473ffffffffffffffffffffffffffffffffffffffff1673ffffffffffffffffffffffffffffffffffffffff16815260200190815260200160002060006101000a81548160ff0219169083151502179055508173ffffffffffffffffffffffffffffffffffffffff168373ffffffffffffffffffffffffffffffffffffffff167f17307eab39ab6107e8899845ad3d59bd9653f200f220920489ca2b5937696c3183604051611cca9190612583565b60405180910390a3505050565b611ce28484846117bf565b611cee84848484611eba565b611d2d576040517f08c379a0000000000000000000000000000000000000000000000000000000008152600401611d24906136b9565b60405180910390fd5b50505050565b606060405180602001604052806000815250905090565b6060611d5582611484565b6000611d5f611d33565b90506000815111611d7f5760405180602001604052806000815250611daa565b80611d8984612051565b604051602001611d9a9291906132d8565b6040516020818303038152906040525b915050919050565b60008073ffffffffffffffffffffffffffffffffffffffff166002600084815260200190815260200160002060009054906101000a900473ffffffffffffffffffffffffffffffffffffffff1673ffffffffffffffffffffffffffffffffffffffff1614159050919050565b611e388282604051806020016040528060008152506121b2565b5050565b611e4582611db2565b611e84576040517f08c379a0000000000000000000000000000000000000000000000000000000008152600401611e7b9061374b565b60405180910390fd5b80600660008481526020019081526020016000209080519060200190611eab92919061242c565b505050565b505050565b505050565b6000611edb8473ffffffffffffffffffffffffffffffffffffffff1661220d565b15612044578373ffffffffffffffffffffffffffffffffffffffff1663150b7a02611f046114cf565b8786866040518563ffffffff1660e01b8152600401611f2694939291906137c0565b602060405180830381600087803b158015611f4057600080fd5b505af1925050508015611f7157506040513d601f19601f82011682018060405250810190611f6e9190613821565b60015b611ff4573d8060008114611fa1576040519150601f19603f3d011682016040523d82523d6000602084013e611fa6565b606091505b50600081511415611fec576040517f08c379a0000000000000000000000000000000000000000000000000000000008152600401611fe3906136b9565b60405180910390fd5b805181602001fd5b63150b7a0260e01b7bffffffffffffffffffffffffffffffffffffffffffffffffffffffff1916817bffffffffffffffffffffffffffffffffffffffffffffffffffffffff191614915050612049565b600190505b949350505050565b60606000821415612099576040518060400160405280600181526020017f300000000000000000000000000000000000000000000000000000000000000081525090506121ad565b600082905060005b600082146120cb5780806120b490613146565b915050600a826120c4919061384e565b91506120a1565b60008167ffffffffffffffff8111156120e7576120e66127b3565b5b6040519080825280601f01601f1916602001820160405280156121195781602001600182028036833780820191505090505b5090505b600085146121a657600182612132919061353b565b9150600a8561214191906133bd565b603061214d91906130f0565b60f81b81838151811061216357612162613092565b5b60200101907effffffffffffffffffffffffffffffffffffffffffffffffffffffffffffff1916908160001a905350600a8561219f919061384e565b945061211d565b8093505050505b919050565b6121bc8383612230565b6121c96000848484611eba565b612208576040517f08c379a00000000000000000000000000000000000000000000000000000000081526004016121ff906136b9565b60405180910390fd5b505050565b6000808273ffffffffffffffffffffffffffffffffffffffff163b119050919050565b600073ffffffffffffffffffffffffffffffffffffffff168273ffffffffffffffffffffffffffffffffffffffff1614156122a0576040517f08c379a0000000000000000000000000000000000000000000000000000000008152600401612297906138cb565b60405180910390fd5b6122a981611db2565b156122e9576040517f08c379a00000000000000000000000000000000000000000000000000000000081526004016122e090613937565b60405180910390fd5b6122f560008383611eb0565b6001600360008473ffffffffffffffffffffffffffffffffffffffff1673ffffffffffffffffffffffffffffffffffffffff168152602001908152602001600020600082825461234591906130f0565b92505081905550816002600083815260200190815260200160002060006101000a81548173ffffffffffffffffffffffffffffffffffffffff021916908373ffffffffffffffffffffffffffffffffffffffff160217905550808273ffffffffffffffffffffffffffffffffffffffff16600073ffffffffffffffffffffffffffffffffffffffff167fddf252ad1be2c89b69c2b068fc378daa952ba7f163c4a11628f55a4df523b3ef60405160405180910390a461240660008383611eb5565b5050565b6040518060600160405280600390602082028036833780820191505090505090565b82805461243890612d3d565b90600052602060002090601f01602090048101928261245a57600085556124a1565b82601f1061247357805160ff19168380011785556124a1565b828001600101855582156124a1579182015b828111156124a0578251825591602001919060010190612485565b5b5090506124ae91906124b2565b5090565b5b808211156124cb5760008160009055506001016124b3565b5090565b6000604051905090565b600080fd5b600080fd5b60007fffffffff0000000000000000000000000000000000000000000000000000000082169050919050565b612518816124e3565b811461252357600080fd5b50565b6000813590506125358161250f565b92915050565b600060208284031215612551576125506124d9565b5b600061255f84828501612526565b91505092915050565b60008115159050919050565b61257d81612568565b82525050565b60006020820190506125986000830184612574565b92915050565b600081519050919050565b600082825260208201905092915050565b60005b838110156125d85780820151818401526020810190506125bd565b838111156125e7576000848401525b50505050565b6000601f19601f8301169050919050565b60006126098261259e565b61261381856125a9565b93506126238185602086016125ba565b61262c816125ed565b840191505092915050565b6000602082019050818103600083015261265181846125fe565b905092915050565b6000819050919050565b61266c81612659565b811461267757600080fd5b50565b60008135905061268981612663565b92915050565b6000602082840312156126a5576126a46124d9565b5b60006126b38482850161267a565b91505092915050565b600073ffffffffffffffffffffffffffffffffffffffff82169050919050565b60006126e7826126bc565b9050919050565b6126f7816126dc565b82525050565b600060208201905061271260008301846126ee565b92915050565b612721816126dc565b811461272c57600080fd5b50565b60008135905061273e81612718565b92915050565b6000806040838503121561275b5761275a6124d9565b5b60006127698582860161272f565b925050602061277a8582860161267a565b9150509250929050565b61278d81612659565b82525050565b60006020820190506127a86000830184612784565b92915050565b600080fd5b7f4e487b7100000000000000000000000000000000000000000000000000000000600052604160045260246000fd5b6127eb826125ed565b810181811067ffffffffffffffff8211171561280a576128096127b3565b5b80604052505050565b600061281d6124cf565b905061282982826127e2565b919050565b600067ffffffffffffffff821115612849576128486127b3565b5b602082029050602081019050919050565b600080fd5b600061287261286d8461282e565b612813565b905080838252602082019050602084028301858111156128955761289461285a565b5b835b818110156128be57806128aa888261267a565b845260208401935050602081019050612897565b5050509392505050565b600082601f8301126128dd576128dc6127ae565b5b81356128ed84826020860161285f565b91505092915050565b6000806040838503121561290d5761290c6124d9565b5b600061291b8582860161267a565b925050602083013567ffffffffffffffff81111561293c5761293b6124de565b5b612948858286016128c8565b9150509250929050565b60008060006060848603121561296b5761296a6124d9565b5b60006129798682870161272f565b935050602061298a8682870161272f565b925050604061299b8682870161267a565b9150509250925092565b600060039050919050565b600081905092915050565b6000819050919050565b6129ce81612659565b82525050565b60006129e083836129c5565b60208301905092915050565b6000602082019050919050565b612a02816129a5565b612a0c81846129b0565b9250612a17826129bb565b8060005b83811015612a48578151612a2f87826129d4565b9650612a3a836129ec565b925050600181019050612a1b565b505050505050565b6000606082019050612a6560008301846129f9565b92915050565b600060208284031215612a8157612a806124d9565b5b6000612a8f8482850161272f565b91505092915050565b7f4e487b7100000000000000000000000000000000000000000000000000000000600052602160045260246000fd5b60038110612ad857612ad7612a98565b5b50565b6000819050612ae982612ac7565b919050565b6000612af982612adb565b9050919050565b612b0981612aee565b82525050565b6000602082019050612b246000830184612b00565b92915050565b612b3381612568565b8114612b3e57600080fd5b50565b600081359050612b5081612b2a565b92915050565b60008060408385031215612b6d57612b6c6124d9565b5b6000612b7b8582860161272f565b9250506020612b8c85828601612b41565b9150509250929050565b600080fd5b600067ffffffffffffffff821115612bb657612bb56127b3565b5b612bbf826125ed565b9050602081019050919050565b82818337600083830152505050565b6000612bee612be984612b9b565b612813565b905082815260208101848484011115612c0a57612c09612b96565b5b612c15848285612bcc565b509392505050565b600082601f830112612c3257612c316127ae565b5b8135612c42848260208601612bdb565b91505092915050565b60008060008060808587031215612c6557612c646124d9565b5b6000612c738782880161272f565b9450506020612c848782880161272f565b9350506040612c958782880161267a565b925050606085013567ffffffffffffffff811115612cb657612cb56124de565b5b612cc287828801612c1d565b91505092959194509250565b60008060408385031215612ce557612ce46124d9565b5b6000612cf38582860161272f565b9250506020612d048582860161272f565b9150509250929050565b7f4e487b7100000000000000000000000000000000000000000000000000000000600052602260045260246000fd5b60006002820490506001821680612d5557607f821691505b60208210811415612d6957612d68612d0e565b5b50919050565b7f4552433732313a20617070726f76616c20746f2063757272656e74206f776e6560008201527f7200000000000000000000000000000000000000000000000000000000000000602082015250565b6000612dcb6021836125a9565b9150612dd682612d6f565b604082019050919050565b60006020820190508181036000830152612dfa81612dbe565b9050919050565b7f4552433732313a20617070726f76652063616c6c6572206973206e6f7420746f60008201527f6b656e206f776e6572206e6f7220617070726f76656420666f7220616c6c0000602082015250565b6000612e5d603e836125a9565b9150612e6882612e01565b604082019050919050565b60006020820190508181036000830152612e8c81612e50565b9050919050565b6000604082019050612ea860008301856126ee565b612eb560208301846126ee565b9392505050565b7f4552433732313a2063616c6c6572206973206e6f7420746f6b656e206f776e6560008201527f72206e6f7220617070726f766564000000000000000000000000000000000000602082015250565b6000612f18602e836125a9565b9150612f2382612ebc565b604082019050919050565b60006020820190508181036000830152612f4781612f0b565b9050919050565b600081905092915050565b50565b6000612f69600083612f4e565b9150612f7482612f59565b600082019050919050565b6000612f8a82612f5c565b9150819050919050565b7f4552433732313a20696e76616c696420746f6b656e2049440000000000000000600082015250565b6000612fca6018836125a9565b9150612fd582612f94565b602082019050919050565b60006020820190508181036000830152612ff981612fbd565b9050919050565b7f4552433732313a2061646472657373207a65726f206973206e6f74206120766160008201527f6c6964206f776e65720000000000000000000000000000000000000000000000602082015250565b600061305c6029836125a9565b915061306782613000565b604082019050919050565b6000602082019050818103600083015261308b8161304f565b9050919050565b7f4e487b7100000000000000000000000000000000000000000000000000000000600052603260045260246000fd5b7f4e487b7100000000000000000000000000000000000000000000000000000000600052601160045260246000fd5b60006130fb82612659565b915061310683612659565b9250827fffffffffffffffffffffffffffffffffffffffffffffffffffffffffffffffff0382111561313b5761313a6130c1565b5b828201905092915050565b600061315182612659565b91507fffffffffffffffffffffffffffffffffffffffffffffffffffffffffffffffff821415613184576131836130c1565b5b600182019050919050565b6000819050919050565b6131a28161318f565b82525050565b600067ffffffffffffffff82169050919050565b6131c5816131a8565b82525050565b600061ffff82169050919050565b6131e2816131cb565b82525050565b600063ffffffff82169050919050565b613201816131e8565b82525050565b600060a08201905061321c6000830188613199565b61322960208301876131bc565b61323660408301866131d9565b61324360608301856131f8565b61325060808301846131f8565b9695505050505050565b60008151905061326981612663565b92915050565b600060208284031215613285576132846124d9565b5b60006132938482850161325a565b91505092915050565b600081905092915050565b60006132b28261259e565b6132bc818561329c565b93506132cc8185602086016125ba565b80840191505092915050565b60006132e482856132a7565b91506132f082846132a7565b91508190509392505050565b7f4f776e61626c653a206e6577206f776e657220697320746865207a65726f206160008201527f6464726573730000000000000000000000000000000000000000000000000000602082015250565b60006133586026836125a9565b9150613363826132fc565b604082019050919050565b600060208201905081810360008301526133878161334b565b9050919050565b7f4e487b7100000000000000000000000000000000000000000000000000000000600052601260045260246000fd5b60006133c882612659565b91506133d383612659565b9250826133e3576133e261338e565b5b828206905092915050565b60006040820190506134036000830185612b00565b61341060208301846126ee565b9392505050565b7f4552433732313a207472616e736665722066726f6d20696e636f72726563742060008201527f6f776e6572000000000000000000000000000000000000000000000000000000602082015250565b60006134736025836125a9565b915061347e82613417565b604082019050919050565b600060208201905081810360008301526134a281613466565b9050919050565b7f4552433732313a207472616e7366657220746f20746865207a65726f2061646460008201527f7265737300000000000000000000000000000000000000000000000000000000602082015250565b60006135056024836125a9565b9150613510826134a9565b604082019050919050565b60006020820190508181036000830152613534816134f8565b9050919050565b600061354682612659565b915061355183612659565b925082821015613564576135636130c1565b5b828203905092915050565b7f4f776e61626c653a2063616c6c6572206973206e6f7420746865206f776e6572600082015250565b60006135a56020836125a9565b91506135b08261356f565b602082019050919050565b600060208201905081810360008301526135d481613598565b9050919050565b7f4552433732313a20617070726f766520746f2063616c6c657200000000000000600082015250565b60006136116019836125a9565b915061361c826135db565b602082019050919050565b6000602082019050818103600083015261364081613604565b9050919050565b7f4552433732313a207472616e7366657220746f206e6f6e20455243373231526560008201527f63656976657220696d706c656d656e7465720000000000000000000000000000602082015250565b60006136a36032836125a9565b91506136ae82613647565b604082019050919050565b600060208201905081810360008301526136d281613696565b9050919050565b7f45524337323155524953746f726167653a2055524920736574206f66206e6f6e60008201527f6578697374656e7420746f6b656e000000000000000000000000000000000000602082015250565b6000613735602e836125a9565b9150613740826136d9565b604082019050919050565b6000602082019050818103600083015261376481613728565b9050919050565b600081519050919050565b600082825260208201905092915050565b60006137928261376b565b61379c8185613776565b93506137ac8185602086016125ba565b6137b5816125ed565b840191505092915050565b60006080820190506137d560008301876126ee565b6137e260208301866126ee565b6137ef6040830185612784565b81810360608301526138018184613787565b905095945050505050565b60008151905061381b8161250f565b92915050565b600060208284031215613837576138366124d9565b5b60006138458482850161380c565b91505092915050565b600061385982612659565b915061386483612659565b9250826138745761387361338e565b5b828204905092915050565b7f4552433732313a206d696e7420746f20746865207a65726f2061646472657373600082015250565b60006138b56020836125a9565b91506138c08261387f565b602082019050919050565b600060208201905081810360008301526138e4816138a8565b9050919050565b7f4552433732313a20746f6b656e20616c7265616479206d696e74656400000000600082015250565b6000613921601c836125a9565b915061392c826138eb565b602082019050919050565b6000602082019050818103600083015261395081613914565b905091905056fea2646970667358221220301bdce7c04b5c3ef07c2a8544a19d0f376062bc6a1a56df290ae599604e973d64736f6c63430008090033",
  "devdoc": {
    "kind": "dev",
    "methods": {
      "approve(address,uint256)": {
        "details": "See {IERC721-approve}."
      },
      "balanceOf(address)": {
        "details": "See {IERC721-balanceOf}."
      },
      "getApproved(uint256)": {
        "details": "See {IERC721-getApproved}."
      },
      "isApprovedForAll(address,address)": {
        "details": "See {IERC721-isApprovedForAll}."
      },
      "name()": {
        "details": "See {IERC721Metadata-name}."
      },
      "owner()": {
        "details": "Returns the address of the current owner."
      },
      "ownerOf(uint256)": {
        "details": "See {IERC721-ownerOf}."
      },
      "renounceOwnership()": {
        "details": "Leaves the contract without owner. It will not be possible to call `onlyOwner` functions anymore. Can only be called by the current owner. NOTE: Renouncing ownership will leave the contract without an owner, thereby removing any functionality that is only available to the owner."
      },
      "safeTransferFrom(address,address,uint256)": {
        "details": "See {IERC721-safeTransferFrom}."
      },
      "safeTransferFrom(address,address,uint256,bytes)": {
        "details": "See {IERC721-safeTransferFrom}."
      },
      "setApprovalForAll(address,bool)": {
        "details": "See {IERC721-setApprovalForAll}."
      },
      "supportsInterface(bytes4)": {
        "details": "See {IERC165-supportsInterface}."
      },
      "symbol()": {
        "details": "See {IERC721Metadata-symbol}."
      },
      "tokenURI(uint256)": {
        "details": "See {IERC721Metadata-tokenURI}."
      },
      "transferFrom(address,address,uint256)": {
        "details": "See {IERC721-transferFrom}."
      },
      "transferOwnership(address)": {
        "details": "Transfers ownership of the contract to a new account (`newOwner`). Can only be called by the current owner."
      }
    },
    "version": 1
  },
  "userdoc": {
    "kind": "user",
    "methods": {},
    "version": 1
  },
  "storageLayout": {
    "storage": [
      {
        "astId": 1296,
        "contract": "contracts/RadomIpfsNft.sol:RandomIpfsNft",
        "label": "_name",
        "offset": 0,
        "slot": "0",
        "type": "t_string_storage"
      },
      {
        "astId": 1298,
        "contract": "contracts/RadomIpfsNft.sol:RandomIpfsNft",
        "label": "_symbol",
        "offset": 0,
        "slot": "1",
        "type": "t_string_storage"
      },
      {
        "astId": 1302,
        "contract": "contracts/RadomIpfsNft.sol:RandomIpfsNft",
        "label": "_owners",
        "offset": 0,
        "slot": "2",
        "type": "t_mapping(t_uint256,t_address)"
      },
      {
        "astId": 1306,
        "contract": "contracts/RadomIpfsNft.sol:RandomIpfsNft",
        "label": "_balances",
        "offset": 0,
        "slot": "3",
        "type": "t_mapping(t_address,t_uint256)"
      },
      {
        "astId": 1310,
        "contract": "contracts/RadomIpfsNft.sol:RandomIpfsNft",
        "label": "_tokenApprovals",
        "offset": 0,
        "slot": "4",
        "type": "t_mapping(t_uint256,t_address)"
      },
      {
        "astId": 1316,
        "contract": "contracts/RadomIpfsNft.sol:RandomIpfsNft",
        "label": "_operatorApprovals",
        "offset": 0,
        "slot": "5",
        "type": "t_mapping(t_address,t_mapping(t_address,t_bool))"
      },
      {
        "astId": 2284,
        "contract": "contracts/RadomIpfsNft.sol:RandomIpfsNft",
        "label": "_tokenURIs",
        "offset": 0,
        "slot": "6",
        "type": "t_mapping(t_uint256,t_string_storage)"
      },
      {
        "astId": 1165,
        "contract": "contracts/RadomIpfsNft.sol:RandomIpfsNft",
        "label": "_owner",
        "offset": 0,
        "slot": "7",
        "type": "t_address"
      },
      {
        "astId": 3357,
        "contract": "contracts/RadomIpfsNft.sol:RandomIpfsNft",
        "label": "s_requestIdToSender",
        "offset": 0,
        "slot": "8",
        "type": "t_mapping(t_uint256,t_address)"
      },
      {
        "astId": 3359,
        "contract": "contracts/RadomIpfsNft.sol:RandomIpfsNft",
        "label": "s_tokenCounter",
        "offset": 0,
        "slot": "9",
        "type": "t_uint256"
      },
      {
        "astId": 3365,
        "contract": "contracts/RadomIpfsNft.sol:RandomIpfsNft",
        "label": "s_tokenURIs",
        "offset": 0,
        "slot": "10",
        "type": "t_array(t_string_storage)dyn_storage"
      },
      {
        "astId": 3367,
        "contract": "contracts/RadomIpfsNft.sol:RandomIpfsNft",
        "label": "i_mintFee",
        "offset": 0,
        "slot": "11",
        "type": "t_uint256"
      }
    ],
    "types": {
      "t_address": {
        "encoding": "inplace",
        "label": "address",
        "numberOfBytes": "20"
      },
      "t_array(t_string_storage)dyn_storage": {
        "base": "t_string_storage",
        "encoding": "dynamic_array",
        "label": "string[]",
        "numberOfBytes": "32"
      },
      "t_bool": {
        "encoding": "inplace",
        "label": "bool",
        "numberOfBytes": "1"
      },
      "t_mapping(t_address,t_bool)": {
        "encoding": "mapping",
        "key": "t_address",
        "label": "mapping(address => bool)",
        "numberOfBytes": "32",
        "value": "t_bool"
      },
      "t_mapping(t_address,t_mapping(t_address,t_bool))": {
        "encoding": "mapping",
        "key": "t_address",
        "label": "mapping(address => mapping(address => bool))",
        "numberOfBytes": "32",
        "value": "t_mapping(t_address,t_bool)"
      },
      "t_mapping(t_address,t_uint256)": {
        "encoding": "mapping",
        "key": "t_address",
        "label": "mapping(address => uint256)",
        "numberOfBytes": "32",
        "value": "t_uint256"
      },
      "t_mapping(t_uint256,t_address)": {
        "encoding": "mapping",
        "key": "t_uint256",
        "label": "mapping(uint256 => address)",
        "numberOfBytes": "32",
        "value": "t_address"
      },
      "t_mapping(t_uint256,t_string_storage)": {
        "encoding": "mapping",
        "key": "t_uint256",
        "label": "mapping(uint256 => string)",
        "numberOfBytes": "32",
        "value": "t_string_storage"
      },
      "t_string_storage": {
        "encoding": "bytes",
        "label": "string",
        "numberOfBytes": "32"
      },
      "t_uint256": {
        "encoding": "inplace",
        "label": "uint256",
        "numberOfBytes": "32"
      }
    }
  }
}